{
  "contractName": "LympoICO",
  "abi": [
    {
      "constant": true,
      "inputs": [],
      "name": "crowdsaleEnded",
      "outputs": [
        {
          "name": "",
          "type": "bool"
        }
      ],
      "payable": false,
      "stateMutability": "view",
      "type": "function"
    },
    {
      "constant": true,
      "inputs": [
        {
          "name": "",
          "type": "address"
        }
      ],
      "name": "balances",
      "outputs": [
        {
          "name": "",
          "type": "uint256"
        }
      ],
      "payable": false,
      "stateMutability": "view",
      "type": "function"
    },
    {
      "constant": true,
      "inputs": [
        {
          "name": "",
          "type": "uint256"
        }
      ],
      "name": "pre_amount_stages",
      "outputs": [
        {
          "name": "",
          "type": "uint256"
        }
      ],
      "payable": false,
      "stateMutability": "view",
      "type": "function"
    },
    {
      "constant": true,
      "inputs": [],
      "name": "pre_maxGoal",
      "outputs": [
        {
          "name": "",
          "type": "uint256"
        }
      ],
      "payable": false,
      "stateMutability": "view",
      "type": "function"
    },
    {
      "constant": true,
      "inputs": [],
      "name": "tokensSold",
      "outputs": [
        {
          "name": "",
          "type": "uint256"
        }
      ],
      "payable": false,
      "stateMutability": "view",
      "type": "function"
    },
    {
      "constant": true,
      "inputs": [],
      "name": "tokenReward",
      "outputs": [
        {
          "name": "",
          "type": "address"
        }
      ],
      "payable": false,
      "stateMutability": "view",
      "type": "function"
    },
    {
      "constant": true,
      "inputs": [],
      "name": "fundingGoal",
      "outputs": [
        {
          "name": "",
          "type": "uint256"
        }
      ],
      "payable": false,
      "stateMutability": "view",
      "type": "function"
    },
    {
      "constant": true,
      "inputs": [],
      "name": "amountRaised",
      "outputs": [
        {
          "name": "",
          "type": "uint256"
        }
      ],
      "payable": false,
      "stateMutability": "view",
      "type": "function"
    },
    {
      "constant": true,
      "inputs": [],
      "name": "pre_tokensSold",
      "outputs": [
        {
          "name": "",
          "type": "uint256"
        }
      ],
      "payable": false,
      "stateMutability": "view",
      "type": "function"
    },
    {
      "constant": true,
      "inputs": [],
      "name": "pre_start",
      "outputs": [
        {
          "name": "",
          "type": "uint256"
        }
      ],
      "payable": false,
      "stateMutability": "view",
      "type": "function"
    },
    {
      "constant": true,
      "inputs": [],
      "name": "pre_end",
      "outputs": [
        {
          "name": "",
          "type": "uint256"
        }
      ],
      "payable": false,
      "stateMutability": "view",
      "type": "function"
    },
    {
      "constant": true,
      "inputs": [],
      "name": "tokenOwner",
      "outputs": [
        {
          "name": "",
          "type": "address"
        }
      ],
      "payable": false,
      "stateMutability": "view",
      "type": "function"
    },
    {
      "constant": true,
      "inputs": [
        {
          "name": "",
          "type": "uint256"
        }
      ],
      "name": "prices",
      "outputs": [
        {
          "name": "",
          "type": "uint256"
        }
      ],
      "payable": false,
      "stateMutability": "view",
      "type": "function"
    },
    {
      "constant": true,
      "inputs": [],
      "name": "start",
      "outputs": [
        {
          "name": "",
          "type": "uint256"
        }
      ],
      "payable": false,
      "stateMutability": "view",
      "type": "function"
    },
    {
      "constant": true,
      "inputs": [],
      "name": "end",
      "outputs": [
        {
          "name": "",
          "type": "uint256"
        }
      ],
      "payable": false,
      "stateMutability": "view",
      "type": "function"
    },
    {
      "constant": true,
      "inputs": [
        {
          "name": "",
          "type": "uint256"
        }
      ],
      "name": "pre_prices",
      "outputs": [
        {
          "name": "",
          "type": "uint256"
        }
      ],
      "payable": false,
      "stateMutability": "view",
      "type": "function"
    },
    {
      "constant": true,
      "inputs": [],
      "name": "maxGoal",
      "outputs": [
        {
          "name": "",
          "type": "uint256"
        }
      ],
      "payable": false,
      "stateMutability": "view",
      "type": "function"
    },
    {
      "inputs": [
        {
          "name": "tokenAddr",
          "type": "address"
        },
        {
          "name": "walletAddr",
          "type": "address"
        },
        {
          "name": "tokenOwnerAddr",
          "type": "address"
        }
      ],
      "payable": false,
      "stateMutability": "nonpayable",
      "type": "constructor"
    },
    {
      "payable": true,
      "stateMutability": "payable",
      "type": "fallback"
    },
    {
      "anonymous": false,
      "inputs": [
        {
          "indexed": false,
          "name": "_tokenOwner",
          "type": "address"
        },
        {
          "indexed": false,
          "name": "_amountRaised",
          "type": "uint256"
        }
      ],
      "name": "GoalReached",
      "type": "event"
    },
    {
      "anonymous": false,
      "inputs": [
        {
          "indexed": false,
          "name": "backer",
          "type": "address"
        },
        {
          "indexed": false,
          "name": "amount",
          "type": "uint256"
        },
        {
          "indexed": false,
          "name": "isContribution",
          "type": "bool"
        },
        {
          "indexed": false,
          "name": "_amountRaised",
          "type": "uint256"
        }
      ],
      "name": "FundTransfer",
      "type": "event"
    },
    {
      "constant": false,
      "inputs": [],
      "name": "current",
      "outputs": [
        {
          "name": "",
          "type": "uint256"
        }
      ],
      "payable": false,
      "stateMutability": "nonpayable",
      "type": "function"
    },
    {
      "constant": false,
      "inputs": [
        {
          "name": "__current",
          "type": "uint256"
        }
      ],
      "name": "setCurrent",
      "outputs": [],
      "payable": false,
      "stateMutability": "nonpayable",
      "type": "function"
    },
    {
      "constant": false,
      "inputs": [
        {
          "name": "receiver",
          "type": "address"
        }
      ],
      "name": "exchange",
      "outputs": [],
      "payable": true,
      "stateMutability": "payable",
      "type": "function"
    },
    {
      "constant": true,
      "inputs": [],
      "name": "getPrice",
      "outputs": [
        {
          "name": "price",
          "type": "uint256"
        }
      ],
      "payable": false,
      "stateMutability": "view",
      "type": "function"
    },
    {
      "constant": false,
      "inputs": [],
      "name": "checkGoalReached",
      "outputs": [],
      "payable": false,
      "stateMutability": "nonpayable",
      "type": "function"
    },
    {
      "constant": false,
      "inputs": [],
      "name": "safeWithdrawal",
      "outputs": [],
      "payable": false,
      "stateMutability": "nonpayable",
      "type": "function"
    }
  ],
  "bytecode": "0x6080604052604080519081016040528061ea6061ffff16815260200161c35061ffff16815250600090600262000037929190620001d7565b506020604051908101604052806a4a723dc6b40b8a9a0000006affffffffffffffffffffff1681525060029060016200007292919062000222565b506000600355602060405190810160405280619c4061ffff168152506004906001620000a092919062000276565b5060006005556000600860006101000a81548160ff0219169083151502179055506000600b55348015620000d357600080fd5b50604051606080620013db83398101806040528101908080519060200190929190805190602001909291908051906020019092919050505082600960006101000a81548173ffffffffffffffffffffffffffffffffffffffff021916908373ffffffffffffffffffffffffffffffffffffffff16021790555081600a60006101000a81548173ffffffffffffffffffffffffffffffffffffffff021916908373ffffffffffffffffffffffffffffffffffffffff16021790555080600860016101000a81548173ffffffffffffffffffffffffffffffffffffffff021916908373ffffffffffffffffffffffffffffffffffffffff160217905550505050620002e9565b82600281019282156200020f579160200282015b828111156200020e578251829061ffff16905591602001919060010190620001eb565b5b5090506200021e9190620002c1565b5090565b826001810192821562000263579160200282015b828111156200026257825182906affffffffffffffffffffff1690559160200191906001019062000236565b5b509050620002729190620002c1565b5090565b8260018101928215620002ae579160200282015b82811115620002ad578251829061ffff169055916020019190600101906200028a565b5b509050620002bd9190620002c1565b5090565b620002e691905b80821115620002e2576000816000905550600101620002c8565b5090565b90565b6110e280620002f96000396000f300608060405260043610610133576000357c0100000000000000000000000000000000000000000000000000000000900463ffffffff16806301738ecd1461019657806301cb3b20146101c35780632367f35d146101da5780632412bdb81461020957806327e235e31461023f57806331232cd31461029657806337981c32146102d7578063518ab2a8146103025780636e66f6e91461032d5780637a3a0e84146103845780637b3e5e7b146103af5780638551b896146103da57806389f0ccba1461040557806398d5fdca146104305780639a7132331461045b5780639fa6a6e314610486578063a3e67610146104b1578063bc31c1c114610508578063be9a655514610549578063efbe1c1c14610574578063f1b5d7de1461059f578063f71441a5146105e0578063fd6b7ef81461060b575b600a60009054906101000a900473ffffffffffffffffffffffffffffffffffffffff1673ffffffffffffffffffffffffffffffffffffffff163373ffffffffffffffffffffffffffffffffffffffff161415156101945761019333610622565b5b005b3480156101a257600080fd5b506101c160048036038101908080359060200190929190505050610af6565b005b3480156101cf57600080fd5b506101d8610b00565b005b3480156101e657600080fd5b506101ef610c8a565b604051808215151515815260200191505060405180910390f35b61023d600480360381019080803573ffffffffffffffffffffffffffffffffffffffff169060200190929190505050610622565b005b34801561024b57600080fd5b50610280600480360381019080803573ffffffffffffffffffffffffffffffffffffffff169060200190929190505050610c9d565b6040518082815260200191505060405180910390f35b3480156102a257600080fd5b506102c160048036038101908080359060200190929190505050610cb5565b6040518082815260200191505060405180910390f35b3480156102e357600080fd5b506102ec610ccf565b6040518082815260200191505060405180910390f35b34801561030e57600080fd5b50610317610cde565b6040518082815260200191505060405180910390f35b34801561033957600080fd5b50610342610ce4565b604051808273ffffffffffffffffffffffffffffffffffffffff1673ffffffffffffffffffffffffffffffffffffffff16815260200191505060405180910390f35b34801561039057600080fd5b50610399610d0a565b6040518082815260200191505060405180910390f35b3480156103bb57600080fd5b506103c4610d19565b6040518082815260200191505060405180910390f35b3480156103e657600080fd5b506103ef610d1f565b6040518082815260200191505060405180910390f35b34801561041157600080fd5b5061041a610d25565b6040518082815260200191505060405180910390f35b34801561043c57600080fd5b50610445610d2d565b6040518082815260200191505060405180910390f35b34801561046757600080fd5b50610470610e25565b6040518082815260200191505060405180910390f35b34801561049257600080fd5b5061049b610e2d565b6040518082815260200191505060405180910390f35b3480156104bd57600080fd5b506104c6610e4a565b604051808273ffffffffffffffffffffffffffffffffffffffff1673ffffffffffffffffffffffffffffffffffffffff16815260200191505060405180910390f35b34801561051457600080fd5b5061053360048036038101908080359060200190929190505050610e70565b6040518082815260200191505060405180910390f35b34801561055557600080fd5b5061055e610e8a565b6040518082815260200191505060405180910390f35b34801561058057600080fd5b50610589610e92565b6040518082815260200191505060405180910390f35b3480156105ab57600080fd5b506105ca60048036038101908080359060200190929190505050610e9a565b6040518082815260200191505060405180910390f35b3480156105ec57600080fd5b506105f5610eb4565b6040518082815260200191505060405180910390f35b34801561061757600080fd5b50610620610ec4565b005b6000806000806000349450610635610d2d565b935061064a848661105990919063ffffffff16565b9250635a65c430610659610e2d565b101580156106725750635a75963061066f610e2d565b11155b9150635a880b30610681610e2d565b1015801561069a5750635a968bb0610697610e2d565b11155b905081806106a55750805b15156106b057600080fd5b6000831115156106bf57600080fd5b811561076257600860009054906101000a900460ff1615801561070157506adb33eec91221fba90000006106fe8460035461108c90919063ffffffff16565b11155b151561070c57600080fd5b6002600060018110151561071c57fe5b01546003541015610746576a04f68ca6d8cd91c6000000831115151561074157600080fd5b610761565b6a0a56fa5b99019a5c800000831115151561076057600080fd5b5b5b80156107b157600860009054906101000a900460ff161580156107a557506b013e76ebd202315f210000006107a28460055461108c90919063ffffffff16565b11155b15156107b057600080fd5b5b600a60009054906101000a900473ffffffffffffffffffffffffffffffffffffffff1673ffffffffffffffffffffffffffffffffffffffff166108fc869081150290604051600060405180830381858888f19350505050158015610819573d6000803e3d6000fd5b5061086c85600760008973ffffffffffffffffffffffffffffffffffffffff1673ffffffffffffffffffffffffffffffffffffffff1681526020019081526020016000205461108c90919063ffffffff16565b600760008873ffffffffffffffffffffffffffffffffffffffff1673ffffffffffffffffffffffffffffffffffffffff168152602001908152602001600020819055506108c48560065461108c90919063ffffffff16565b60068190555081156108ec576108e58360035461108c90919063ffffffff16565b6003819055505b801561090e576109078360055461108c90919063ffffffff16565b6005819055505b600960009054906101000a900473ffffffffffffffffffffffffffffffffffffffff1673ffffffffffffffffffffffffffffffffffffffff166323b872dd600860019054906101000a900473ffffffffffffffffffffffffffffffffffffffff1688866040518463ffffffff167c0100000000000000000000000000000000000000000000000000000000028152600401808473ffffffffffffffffffffffffffffffffffffffff1673ffffffffffffffffffffffffffffffffffffffff1681526020018373ffffffffffffffffffffffffffffffffffffffff1673ffffffffffffffffffffffffffffffffffffffff1681526020018281526020019350505050602060405180830381600087803b158015610a2957600080fd5b505af1158015610a3d573d6000803e3d6000fd5b505050506040513d6020811015610a5357600080fd5b81019080805190602001909291905050501515610a6c57fe5b7f1673f758ed3beff5e37b51f770fd638a812bade2568f15526a4f5b33945c936386866001600654604051808573ffffffffffffffffffffffffffffffffffffffff1673ffffffffffffffffffffffffffffffffffffffff1681526020018481526020018315151515815260200182815260200194505050505060405180910390a1505050505050565b80600b8190555050565b635a968bb0610b0d610e2d565b101515610c88576a7c13bc4b2c133c56000000610b3760055460035461108c90919063ffffffff16565b101515610c6c57600960009054906101000a900473ffffffffffffffffffffffffffffffffffffffff1673ffffffffffffffffffffffffffffffffffffffff166344df8e706040518163ffffffff167c0100000000000000000000000000000000000000000000000000000000028152600401600060405180830381600087803b158015610bc457600080fd5b505af1158015610bd8573d6000803e3d6000fd5b505050507fec3f991caf7857d61663fd1bba1739e04abd4781238508cde554bb849d790c85600860019054906101000a900473ffffffffffffffffffffffffffffffffffffffff16600654604051808373ffffffffffffffffffffffffffffffffffffffff1673ffffffffffffffffffffffffffffffffffffffff1681526020018281526020019250505060405180910390a15b6001600860006101000a81548160ff0219169083151502179055505b565b600860009054906101000a900460ff1681565b60076020528060005260406000206000915090505481565b600281600181101515610cc457fe5b016000915090505481565b6adb33eec91221fba900000081565b60055481565b600960009054906101000a900473ffffffffffffffffffffffffffffffffffffffff1681565b6a7c13bc4b2c133c5600000081565b60065481565b60035481565b635a65c43081565b600080635a65c430610d3d610e2d565b10158015610d565750635a759630610d53610e2d565b11155b15610dc457600090505b6001811015610da857600281600181101515610d7857fe5b01546003541015610d9b57600081600281101515610d9257fe5b01549150610e21565b8080600101915050610d60565b60006001600203600281101515610dbb57fe5b01549150610e21565b635a880b30610dd1610e2d565b10158015610dea5750635a968bb0610de7610e2d565b11155b15610e0a57600460018003600181101515610e0157fe5b01549150610e21565b600460018003600181101515610e1c57fe5b015491505b5090565b635a75963081565b600080600b541415610e4157429050610e47565b600b5490505b90565b600860019054906101000a900473ffffffffffffffffffffffffffffffffffffffff1681565b600481600181101515610e7f57fe5b016000915090505481565b635a880b3081565b635a968bb081565b600081600281101515610ea957fe5b016000915090505481565b6b013e76ebd202315f2100000081565b6000635a968bb0610ed3610e2d565b10151561105657600760003373ffffffffffffffffffffffffffffffffffffffff1673ffffffffffffffffffffffffffffffffffffffff168152602001908152602001600020549050803073ffffffffffffffffffffffffffffffffffffffff1631101515611055576000600760003373ffffffffffffffffffffffffffffffffffffffff1673ffffffffffffffffffffffffffffffffffffffff168152602001908152602001600020819055506000811115611054573373ffffffffffffffffffffffffffffffffffffffff166108fc829081150290604051600060405180830381858888f19350505050158015610fd0573d6000803e3d6000fd5b507f1673f758ed3beff5e37b51f770fd638a812bade2568f15526a4f5b33945c936333826000600654604051808573ffffffffffffffffffffffffffffffffffffffff1673ffffffffffffffffffffffffffffffffffffffff1681526020018481526020018315151515815260200182815260200194505050505060405180910390a15b5b5b50565b6000808284029050600084148061107a575082848281151561107757fe5b04145b151561108257fe5b8091505092915050565b60008082840190508381101580156110a45750828110155b15156110ac57fe5b80915050929150505600a165627a7a72305820b151f85bb8776a59746387e8b57389b393219a028ccb60e0e70fb2f88ce9f01d0029",
  "source": "/*\n *  Crowdsale for Lympo Tokens.\n *  Raised Ether will be stored safely at the wallet and returned to the ICO in case the funding\n *  goal is not reached, allowing the token holders to withdraw their funds.\n *  Author: Justas Kregždė\n */\n \npragma solidity ^0.4.15;\n\ncontract token {\n    function transferFrom(address sender, address receiver, uint amount) returns(bool success) {}\n    function burn() {}\n}\n\nlibrary SafeMath {\n    function mul(uint a, uint b) internal returns (uint) {\n        uint c = a * b;\n        assert(a == 0 || c / a == b);\n        return c;\n    }\n\n    function sub(uint a, uint b) internal returns (uint) {\n        assert(b <= a);\n        return a - b;\n    }\n\n    function add(uint a, uint b) internal returns (uint) {\n        uint c = a + b;\n        assert(c >= a && c >= b);\n        return c;\n    }\n}\n\ncontract LympoICO {\n    using SafeMath for uint;\n\n    // pre-ICO\n    // The maximum amount of tokens to be sold during pre-ICO\n    uint constant public pre_maxGoal = 265000000e18; // 265 Million LYM Tokens\n    // There are different prices and amount available in each period\n    uint[2] public pre_prices = [60000, 50000];\n    uint[1] public pre_amount_stages = [90000000e18]; // the amount available in each stage\n    // The start date of the pre-ICO crowdsale\n    uint constant public pre_start = 1516618800; // Monday, 22 January 2018 11:00:00 GMT\n    // The end date of the pre-ICO crowdsale\n    uint constant public pre_end = 1517655600; // Saturday, 3 February 2018 11:00:00 GMT\n    // The number of tokens already sold during pre-ICO\n    uint public pre_tokensSold = 0;\n\n    // ICO\n    // The maximum amount of tokens to be sold\n    uint constant public maxGoal = 385000000e18; // 385 Million LYM Tokens\n    // There are different prices and amount available in each period\n    uint[1] public prices = [40000];\n    // The start date of the crowdsale\n    uint constant public start = 1518865200; // Saturday, 17 February 2018 11:00:00 GMT\n    // The end date of the crowdsale\n    uint constant public end = 1519815600; // Wednesday, 28 February 2018 11:00:00 GMT\n    // The number of tokens already sold during ICO\n    uint public tokensSold = 0;\n\n    // If the funding goal is not reached, token holders may withdraw their funds\n    uint constant public fundingGoal = 150000000e18; // 15%\n    // How much has been raised by crowdale (in ETH)\n    uint public amountRaised;\n    // The balances (in ETH) of all token holders\n    mapping(address => uint) public balances;\n    // Indicates if the crowdsale has been ended already\n    bool public crowdsaleEnded = false;\n    // Tokens will be transfered from this address\n    address public tokenOwner;\n    // The address of the token contract\n    token public tokenReward;\n    // The wallet on which the funds will be stored\n    address wallet;\n    // Notifying transfers and the success of the crowdsale\n    event GoalReached(address _tokenOwner, uint _amountRaised);\n    event FundTransfer(address backer, uint amount, bool isContribution, uint _amountRaised);\n\n    // ---- FOR TEST ONLY ----\n    uint _current = 0;\n    function current() public returns (uint) {\n        // Override not in use\n        if(_current == 0) {\n            return now;\n        }\n        return _current;\n    }\n    function setCurrent(uint __current) {\n        _current = __current;\n    }\n    //------------------------\n\n\n    // Constructor/initialization\n    function LympoICO(address tokenAddr, address walletAddr, address tokenOwnerAddr) {\n        tokenReward = token(tokenAddr);\n        wallet = walletAddr;\n        tokenOwner = tokenOwnerAddr;\n    }\n    \n    // Exchange by sending ether to the contract.\n    function() payable {\n        if (msg.sender != wallet) // Do not trigger exchange if the wallet is returning the funds\n            exchange(msg.sender);\n    }\n    \n    // Make an exchanegment. Only callable if the crowdsale started and hasn't been ended, also the maxGoal wasn't reached yet.\n    // The current token price is looked up by available amount. Bought tokens is transfered to the receiver.\n    // The sent value is directly forwarded to a safe wallet.\n    function exchange(address receiver) payable {\n        uint amount = msg.value;\n        uint price = getPrice();\n        uint numTokens = amount.mul(price);\n\n        bool isPreICO = (current() >= pre_start && current() <= pre_end);\n        bool isICO = (current() >= start && current() <= end);\n\n        require(isPreICO || isICO);\n        require(numTokens > 0);\n        if (isPreICO)\n        {\n            require(!crowdsaleEnded && pre_tokensSold.add(numTokens) <= pre_maxGoal);\n            if (pre_tokensSold < pre_amount_stages[0])\n                require(numTokens <= 6000000e18); // max threshold for pre-ICO: 6mil LYM tokens for stage-I\n            else\n                require(numTokens <= 12500000e18); // max threshold for pre-ICO: 12.5mil LYM tokens for stage-II\n        }\n        if (isICO)\n        {\n            require(!crowdsaleEnded && tokensSold.add(numTokens) <= maxGoal);\n        }\n\n        wallet.transfer(amount);\n        balances[receiver] = balances[receiver].add(amount);\n        \n        // Calculate how much raised and tokens sold\n        amountRaised = amountRaised.add(amount);\n\n        if (isPreICO)\n            pre_tokensSold = pre_tokensSold.add(numTokens);\n        if (isICO)\n            tokensSold = tokensSold.add(numTokens);\n\n        assert(tokenReward.transferFrom(tokenOwner, receiver, numTokens));\n        FundTransfer(receiver, amount, true, amountRaised);\n    }\n\n    // Looks up the current token price\n    function getPrice() constant returns (uint price) {\n        // pre-ICO prices\n        if (current() >= pre_start && current() <= pre_end)\n        {\n            for(uint i = 0; i < pre_amount_stages.length; i++) {\n                if(pre_tokensSold < pre_amount_stages[i])\n                    return pre_prices[i];\n            }\n            return pre_prices[pre_prices.length-1];\n        }\n        // ICO prices\n        if (current() >= start && current() <= end)\n        {\n            return prices[prices.length-1];\n        }\n        return prices[prices.length-1];\n    }\n\n    modifier afterDeadline() { if (current() >= end) _; }\n\n    // Checks if the goal or time limit has been reached and ends the campaign\n    function checkGoalReached() afterDeadline {\n        if (pre_tokensSold.add(tokensSold) >= fundingGoal){\n            tokenReward.burn(); // Burn remaining tokens but the reserved ones\n            GoalReached(tokenOwner, amountRaised);\n        }\n        crowdsaleEnded = true;\n    }\n\n    // Allows the funders to withdraw their funds if the goal has not been reached.\n    // Only works after funds have been returned from the wallet.\n    function safeWithdrawal() afterDeadline {\n        uint amount = balances[msg.sender];\n        if (address(this).balance >= amount) {\n            balances[msg.sender] = 0;\n            if (amount > 0) {\n                msg.sender.transfer(amount);\n                FundTransfer(msg.sender, amount, false, amountRaised);\n            }\n        }\n    }\n}\n",
  "sourcePath": "/Users/ltodd/Documents/ico-smartcontracts/contracts/LympoICO.sol",
  "compiler": {
    "name": "solc",
    "version": "0.4.24+commit.e67f0147.Emscripten.clang"
  },
  "schemaVersion": "2.0.1",
  "updatedAt": "2018-08-01T06:21:04.190Z"
}