{
  "contractName": "LympoToken",
  "abi": [
    {
      "constant": true,
      "inputs": [],
      "name": "name",
      "outputs": [
        {
          "name": "",
          "type": "string"
        }
      ],
      "payable": false,
      "stateMutability": "view",
      "type": "function"
    },
    {
      "constant": true,
      "inputs": [],
      "name": "advisersReserve",
      "outputs": [
        {
          "name": "",
          "type": "uint256"
        }
      ],
      "payable": false,
      "stateMutability": "view",
      "type": "function"
    },
    {
      "constant": true,
      "inputs": [],
      "name": "decimals",
      "outputs": [
        {
          "name": "",
          "type": "uint8"
        }
      ],
      "payable": false,
      "stateMutability": "view",
      "type": "function"
    },
    {
      "constant": true,
      "inputs": [],
      "name": "teamReserve",
      "outputs": [
        {
          "name": "",
          "type": "uint256"
        }
      ],
      "payable": false,
      "stateMutability": "view",
      "type": "function"
    },
    {
      "constant": true,
      "inputs": [],
      "name": "ecoLock23",
      "outputs": [
        {
          "name": "",
          "type": "uint256"
        }
      ],
      "payable": false,
      "stateMutability": "view",
      "type": "function"
    },
    {
      "constant": true,
      "inputs": [],
      "name": "tokensPreICO",
      "outputs": [
        {
          "name": "",
          "type": "uint256"
        }
      ],
      "payable": false,
      "stateMutability": "view",
      "type": "function"
    },
    {
      "constant": true,
      "inputs": [],
      "name": "lockReleaseDate2year",
      "outputs": [
        {
          "name": "",
          "type": "uint256"
        }
      ],
      "payable": false,
      "stateMutability": "view",
      "type": "function"
    },
    {
      "constant": true,
      "inputs": [],
      "name": "standard",
      "outputs": [
        {
          "name": "",
          "type": "string"
        }
      ],
      "payable": false,
      "stateMutability": "view",
      "type": "function"
    },
    {
      "constant": true,
      "inputs": [],
      "name": "ecosystemReserve",
      "outputs": [
        {
          "name": "",
          "type": "uint256"
        }
      ],
      "payable": false,
      "stateMutability": "view",
      "type": "function"
    },
    {
      "constant": true,
      "inputs": [],
      "name": "tokensICO",
      "outputs": [
        {
          "name": "",
          "type": "uint256"
        }
      ],
      "payable": false,
      "stateMutability": "view",
      "type": "function"
    },
    {
      "constant": true,
      "inputs": [],
      "name": "lockReleaseDate1year",
      "outputs": [
        {
          "name": "",
          "type": "uint256"
        }
      ],
      "payable": false,
      "stateMutability": "view",
      "type": "function"
    },
    {
      "constant": true,
      "inputs": [],
      "name": "startTime",
      "outputs": [
        {
          "name": "",
          "type": "uint256"
        }
      ],
      "payable": false,
      "stateMutability": "view",
      "type": "function"
    },
    {
      "constant": true,
      "inputs": [],
      "name": "ecosystemAddr",
      "outputs": [
        {
          "name": "",
          "type": "address"
        }
      ],
      "payable": false,
      "stateMutability": "view",
      "type": "function"
    },
    {
      "constant": true,
      "inputs": [],
      "name": "symbol",
      "outputs": [
        {
          "name": "",
          "type": "string"
        }
      ],
      "payable": false,
      "stateMutability": "view",
      "type": "function"
    },
    {
      "constant": true,
      "inputs": [],
      "name": "advisersAddr",
      "outputs": [
        {
          "name": "",
          "type": "address"
        }
      ],
      "payable": false,
      "stateMutability": "view",
      "type": "function"
    },
    {
      "constant": true,
      "inputs": [],
      "name": "ownerAddr",
      "outputs": [
        {
          "name": "",
          "type": "address"
        }
      ],
      "payable": false,
      "stateMutability": "view",
      "type": "function"
    },
    {
      "constant": true,
      "inputs": [],
      "name": "ecoLock13",
      "outputs": [
        {
          "name": "",
          "type": "uint256"
        }
      ],
      "payable": false,
      "stateMutability": "view",
      "type": "function"
    },
    {
      "inputs": [
        {
          "name": "_ownerAddr",
          "type": "address"
        },
        {
          "name": "_advisersAddr",
          "type": "address"
        },
        {
          "name": "_ecosystemAddr",
          "type": "address"
        }
      ],
      "payable": false,
      "stateMutability": "nonpayable",
      "type": "constructor"
    },
    {
      "anonymous": false,
      "inputs": [
        {
          "indexed": true,
          "name": "from",
          "type": "address"
        },
        {
          "indexed": true,
          "name": "to",
          "type": "address"
        },
        {
          "indexed": false,
          "name": "value",
          "type": "uint256"
        }
      ],
      "name": "Transfer",
      "type": "event"
    },
    {
      "anonymous": false,
      "inputs": [
        {
          "indexed": true,
          "name": "_owner",
          "type": "address"
        },
        {
          "indexed": true,
          "name": "spender",
          "type": "address"
        },
        {
          "indexed": false,
          "name": "value",
          "type": "uint256"
        }
      ],
      "name": "Approval",
      "type": "event"
    },
    {
      "anonymous": false,
      "inputs": [
        {
          "indexed": false,
          "name": "amount",
          "type": "uint256"
        }
      ],
      "name": "Burned",
      "type": "event"
    },
    {
      "constant": false,
      "inputs": [],
      "name": "current",
      "outputs": [
        {
          "name": "",
          "type": "uint256"
        }
      ],
      "payable": false,
      "stateMutability": "nonpayable",
      "type": "function"
    },
    {
      "constant": false,
      "inputs": [
        {
          "name": "__current",
          "type": "uint256"
        }
      ],
      "name": "setCurrent",
      "outputs": [],
      "payable": false,
      "stateMutability": "nonpayable",
      "type": "function"
    },
    {
      "constant": true,
      "inputs": [
        {
          "name": "_owner",
          "type": "address"
        }
      ],
      "name": "balanceOf",
      "outputs": [
        {
          "name": "balance",
          "type": "uint256"
        }
      ],
      "payable": false,
      "stateMutability": "view",
      "type": "function"
    },
    {
      "constant": true,
      "inputs": [
        {
          "name": "_owner",
          "type": "address"
        },
        {
          "name": "_spender",
          "type": "address"
        }
      ],
      "name": "allowance",
      "outputs": [
        {
          "name": "remaining",
          "type": "uint256"
        }
      ],
      "payable": false,
      "stateMutability": "view",
      "type": "function"
    },
    {
      "constant": true,
      "inputs": [],
      "name": "totalSupply",
      "outputs": [
        {
          "name": "totalSupply",
          "type": "uint256"
        }
      ],
      "payable": false,
      "stateMutability": "view",
      "type": "function"
    },
    {
      "constant": false,
      "inputs": [
        {
          "name": "_to",
          "type": "address"
        },
        {
          "name": "_value",
          "type": "uint256"
        }
      ],
      "name": "transfer",
      "outputs": [
        {
          "name": "",
          "type": "bool"
        }
      ],
      "payable": false,
      "stateMutability": "nonpayable",
      "type": "function"
    },
    {
      "constant": false,
      "inputs": [
        {
          "name": "_from",
          "type": "address"
        },
        {
          "name": "_to",
          "type": "address"
        },
        {
          "name": "_value",
          "type": "uint256"
        }
      ],
      "name": "transferFrom",
      "outputs": [
        {
          "name": "",
          "type": "bool"
        }
      ],
      "payable": false,
      "stateMutability": "nonpayable",
      "type": "function"
    },
    {
      "constant": false,
      "inputs": [
        {
          "name": "_spender",
          "type": "address"
        },
        {
          "name": "_value",
          "type": "uint256"
        }
      ],
      "name": "approve",
      "outputs": [
        {
          "name": "",
          "type": "bool"
        }
      ],
      "payable": false,
      "stateMutability": "nonpayable",
      "type": "function"
    },
    {
      "constant": false,
      "inputs": [],
      "name": "burn",
      "outputs": [],
      "payable": false,
      "stateMutability": "nonpayable",
      "type": "function"
    }
  ],
  "bytecode": "0x60806040526b033b2e3c9fd0803ce8000000600055600060065534801561002557600080fd5b50604051606080611b8d83398101806040528101908080519060200190929190805190602001909291908051906020019092919050505082600360006101000a81548173ffffffffffffffffffffffffffffffffffffffff021916908373ffffffffffffffffffffffffffffffffffffffff16021790555081600560006101000a81548173ffffffffffffffffffffffffffffffffffffffff021916908373ffffffffffffffffffffffffffffffffffffffff16021790555080600460006101000a81548173ffffffffffffffffffffffffffffffffffffffff021916908373ffffffffffffffffffffffffffffffffffffffff1602179055506301e13380635a968bb0016001819055506303c26700635a968bb00160028190555060005460076000600360009054906101000a900473ffffffffffffffffffffffffffffffffffffffff1673ffffffffffffffffffffffffffffffffffffffff1673ffffffffffffffffffffffffffffffffffffffff168152602001908152602001600020819055505050506119d2806101bb6000396000f300608060405260043610610154576000357c0100000000000000000000000000000000000000000000000000000000900463ffffffff16806301738ecd1461015957806306fdde0314610186578063095ea7b3146102165780630a8f8fb91461027b57806318160ddd146102a657806323b872dd146102d1578063313ce567146103565780634287f14a1461038757806344df8e70146103b25780634a222b74146103c95780634d999756146103f4578063565118f71461041f5780635a3b7e421461044a5780636071eb5c146104da57806370a0823114610505578063721ed9ec1461055c57806375df1fe81461058757806378e97925146105b257806393ed013d146105dd57806395d89b41146106345780639ba3c2e0146106c45780639c675eaa1461071b5780639fa6a6e314610772578063a9059cbb1461079d578063ba0c177714610802578063dd62ed3e1461082d575b600080fd5b34801561016557600080fd5b50610184600480360381019080803590602001909291905050506108a4565b005b34801561019257600080fd5b5061019b6108ae565b6040518080602001828103825283818151815260200191508051906020019080838360005b838110156101db5780820151818401526020810190506101c0565b50505050905090810190601f1680156102085780820380516001836020036101000a031916815260200191505b509250505060405180910390f35b34801561022257600080fd5b50610261600480360381019080803573ffffffffffffffffffffffffffffffffffffffff169060200190929190803590602001909291905050506108e7565b604051808215151515815260200191505060405180910390f35b34801561028757600080fd5b50610290610a6e565b6040518082815260200191505060405180910390f35b3480156102b257600080fd5b506102bb610a7d565b6040518082815260200191505060405180910390f35b3480156102dd57600080fd5b5061033c600480360381019080803573ffffffffffffffffffffffffffffffffffffffff169060200190929190803573ffffffffffffffffffffffffffffffffffffffff16906020019092919080359060200190929190505050610a86565b604051808215151515815260200191505060405180910390f35b34801561036257600080fd5b5061036b61102d565b604051808260ff1660ff16815260200191505060405180910390f35b34801561039357600080fd5b5061039c611032565b6040518082815260200191505060405180910390f35b3480156103be57600080fd5b506103c7611041565b005b3480156103d557600080fd5b506103de6112f6565b6040518082815260200191505060405180910390f35b34801561040057600080fd5b50610409611305565b6040518082815260200191505060405180910390f35b34801561042b57600080fd5b50610434611314565b6040518082815260200191505060405180910390f35b34801561045657600080fd5b5061045f61131a565b6040518080602001828103825283818151815260200191508051906020019080838360005b8381101561049f578082015181840152602081019050610484565b50505050905090810190601f1680156104cc5780820380516001836020036101000a031916815260200191505b509250505060405180910390f35b3480156104e657600080fd5b506104ef611353565b6040518082815260200191505060405180910390f35b34801561051157600080fd5b50610546600480360381019080803573ffffffffffffffffffffffffffffffffffffffff169060200190929190505050611362565b6040518082815260200191505060405180910390f35b34801561056857600080fd5b506105716113ab565b6040518082815260200191505060405180910390f35b34801561059357600080fd5b5061059c6113bb565b6040518082815260200191505060405180910390f35b3480156105be57600080fd5b506105c76113c1565b6040518082815260200191505060405180910390f35b3480156105e957600080fd5b506105f26113c9565b604051808273ffffffffffffffffffffffffffffffffffffffff1673ffffffffffffffffffffffffffffffffffffffff16815260200191505060405180910390f35b34801561064057600080fd5b506106496113ef565b6040518080602001828103825283818151815260200191508051906020019080838360005b8381101561068957808201518184015260208101905061066e565b50505050905090810190601f1680156106b65780820380516001836020036101000a031916815260200191505b509250505060405180910390f35b3480156106d057600080fd5b506106d9611428565b604051808273ffffffffffffffffffffffffffffffffffffffff1673ffffffffffffffffffffffffffffffffffffffff16815260200191505060405180910390f35b34801561072757600080fd5b5061073061144e565b604051808273ffffffffffffffffffffffffffffffffffffffff1673ffffffffffffffffffffffffffffffffffffffff16815260200191505060405180910390f35b34801561077e57600080fd5b50610787611474565b6040518082815260200191505060405180910390f35b3480156107a957600080fd5b506107e8600480360381019080803573ffffffffffffffffffffffffffffffffffffffff16906020019092919080359060200190929190505050611491565b604051808215151515815260200191505060405180910390f35b34801561080e57600080fd5b506108176118cd565b6040518082815260200191505060405180910390f35b34801561083957600080fd5b5061088e600480360381019080803573ffffffffffffffffffffffffffffffffffffffff169060200190929190803573ffffffffffffffffffffffffffffffffffffffff1690602001909291905050506118dc565b6040518082815260200191505060405180910390f35b8060068190555050565b6040805190810160405280600c81526020017f4c796d706f20746f6b656e73000000000000000000000000000000000000000081525081565b60008082148061097357506000600860003373ffffffffffffffffffffffffffffffffffffffff1673ffffffffffffffffffffffffffffffffffffffff16815260200190815260200160002060008573ffffffffffffffffffffffffffffffffffffffff1673ffffffffffffffffffffffffffffffffffffffff16815260200190815260200160002054145b151561097e57600080fd5b81600860003373ffffffffffffffffffffffffffffffffffffffff1673ffffffffffffffffffffffffffffffffffffffff16815260200190815260200160002060008573ffffffffffffffffffffffffffffffffffffffff1673ffffffffffffffffffffffffffffffffffffffff168152602001908152602001600020819055508273ffffffffffffffffffffffffffffffffffffffff163373ffffffffffffffffffffffffffffffffffffffff167f8c5be1e5ebec7d5bd14f71427d1e84f3dd0314c0f7b2291e5b200ac8c7c3b925846040518082815260200191505060405180910390a36001905092915050565b6a18d0bf423c03d8de00000081565b60008054905090565b600080635a968bb0610a96611474565b1015610af957600360009054906101000a900473ffffffffffffffffffffffffffffffffffffffff1673ffffffffffffffffffffffffffffffffffffffff168573ffffffffffffffffffffffffffffffffffffffff16141515610af857600080fd5b5b600360009054906101000a900473ffffffffffffffffffffffffffffffffffffffff1673ffffffffffffffffffffffffffffffffffffffff168573ffffffffffffffffffffffffffffffffffffffff16148015610b5e5750600254610b5c611474565b105b15610bcf576a52b7d2dcc80cd2e4000000610bc184600760008973ffffffffffffffffffffffffffffffffffffffff1673ffffffffffffffffffffffffffffffffffffffff1681526020019081526020016000205461196390919063ffffffff16565b10151515610bce57600080fd5b5b600460009054906101000a900473ffffffffffffffffffffffffffffffffffffffff1673ffffffffffffffffffffffffffffffffffffffff168573ffffffffffffffffffffffffffffffffffffffff16148015610c345750600154610c32611474565b105b15610ca9576a794ec4d9977378d1800000610c9784600760008973ffffffffffffffffffffffffffffffffffffffff1673ffffffffffffffffffffffffffffffffffffffff1681526020019081526020016000205461196390919063ffffffff16565b10151515610ca457600080fd5b610d80565b600460009054906101000a900473ffffffffffffffffffffffffffffffffffffffff1673ffffffffffffffffffffffffffffffffffffffff168573ffffffffffffffffffffffffffffffffffffffff16148015610d0e5750600254610d0c611474565b105b15610d7f576a3ca7626ccbb9bc68c00000610d7184600760008973ffffffffffffffffffffffffffffffffffffffff1673ffffffffffffffffffffffffffffffffffffffff1681526020019081526020016000205461196390919063ffffffff16565b10151515610d7e57600080fd5b5b5b600860008673ffffffffffffffffffffffffffffffffffffffff1673ffffffffffffffffffffffffffffffffffffffff16815260200190815260200160002060003373ffffffffffffffffffffffffffffffffffffffff1673ffffffffffffffffffffffffffffffffffffffff168152602001908152602001600020549050610e5183600760008873ffffffffffffffffffffffffffffffffffffffff1673ffffffffffffffffffffffffffffffffffffffff1681526020019081526020016000205461196390919063ffffffff16565b600760008773ffffffffffffffffffffffffffffffffffffffff1673ffffffffffffffffffffffffffffffffffffffff16815260200190815260200160002081905550610ee683600760008773ffffffffffffffffffffffffffffffffffffffff1673ffffffffffffffffffffffffffffffffffffffff1681526020019081526020016000205461197c90919063ffffffff16565b600760008673ffffffffffffffffffffffffffffffffffffffff1673ffffffffffffffffffffffffffffffffffffffff16815260200190815260200160002081905550610f3c838261196390919063ffffffff16565b600860008773ffffffffffffffffffffffffffffffffffffffff1673ffffffffffffffffffffffffffffffffffffffff16815260200190815260200160002060003373ffffffffffffffffffffffffffffffffffffffff1673ffffffffffffffffffffffffffffffffffffffff168152602001908152602001600020819055508373ffffffffffffffffffffffffffffffffffffffff168573ffffffffffffffffffffffffffffffffffffffff167fddf252ad1be2c89b69c2b068fc378daa952ba7f163c4a11628f55a4df523b3ef856040518082815260200191505060405180910390a360019150509392505050565b601281565b6a52b7d2dcc80cd2e400000081565b600080600560149054906101000a900460ff1615801561106b5750635a968bb0611069611474565b115b156112f2576110996a52b7d2dcc80cd2e40000006ab5facfe5b81c365c00000061197c90919063ffffffff16565b91506110b96a18d0bf423c03d8de0000008361197c90919063ffffffff16565b915061112f8260076000600360009054906101000a900473ffffffffffffffffffffffffffffffffffffffff1673ffffffffffffffffffffffffffffffffffffffff1673ffffffffffffffffffffffffffffffffffffffff1681526020019081526020016000205461196390919063ffffffff16565b90506a52b7d2dcc80cd2e400000060076000600360009054906101000a900473ffffffffffffffffffffffffffffffffffffffff1673ffffffffffffffffffffffffffffffffffffffff1673ffffffffffffffffffffffffffffffffffffffff168152602001908152602001600020819055506a18d0bf423c03d8de00000060076000600560009054906101000a900473ffffffffffffffffffffffffffffffffffffffff1673ffffffffffffffffffffffffffffffffffffffff1673ffffffffffffffffffffffffffffffffffffffff168152602001908152602001600020819055506ab5facfe5b81c365c00000060076000600460009054906101000a900473ffffffffffffffffffffffffffffffffffffffff1673ffffffffffffffffffffffffffffffffffffffff1673ffffffffffffffffffffffffffffffffffffffff168152602001908152602001600020819055506112998160005461196390919063ffffffff16565b6000819055506001600560146101000a81548160ff0219169083151502179055507fd83c63197e8e676d80ab0122beba9a9d20f3828839e9a1d6fe81d242e9cd7e6e816040518082815260200191505060405180910390a15b5050565b6a794ec4d9977378d180000081565b6adb33eec91221fba900000081565b60025481565b6040805190810160405280600581526020017f455243323000000000000000000000000000000000000000000000000000000081525081565b6ab5facfe5b81c365c00000081565b6000600760008373ffffffffffffffffffffffffffffffffffffffff1673ffffffffffffffffffffffffffffffffffffffff168152602001908152602001600020549050919050565b6b013e76ebd202315f2100000081565b60015481565b635a968bb081565b600460009054906101000a900473ffffffffffffffffffffffffffffffffffffffff1681565b6040805190810160405280600381526020017f4c594d000000000000000000000000000000000000000000000000000000000081525081565b600560009054906101000a900473ffffffffffffffffffffffffffffffffffffffff1681565b600360009054906101000a900473ffffffffffffffffffffffffffffffffffffffff1681565b60008060065414156114885742905061148e565b60065490505b90565b6000635a968bb06114a0611474565b101515156114ad57600080fd5b600360009054906101000a900473ffffffffffffffffffffffffffffffffffffffff1673ffffffffffffffffffffffffffffffffffffffff163373ffffffffffffffffffffffffffffffffffffffff161480156115125750600254611510611474565b105b15611583576a52b7d2dcc80cd2e400000061157583600760003373ffffffffffffffffffffffffffffffffffffffff1673ffffffffffffffffffffffffffffffffffffffff1681526020019081526020016000205461196390919063ffffffff16565b1015151561158257600080fd5b5b600460009054906101000a900473ffffffffffffffffffffffffffffffffffffffff1673ffffffffffffffffffffffffffffffffffffffff163373ffffffffffffffffffffffffffffffffffffffff161480156115e857506001546115e6611474565b105b1561165d576a794ec4d9977378d180000061164b83600760003373ffffffffffffffffffffffffffffffffffffffff1673ffffffffffffffffffffffffffffffffffffffff1681526020019081526020016000205461196390919063ffffffff16565b1015151561165857600080fd5b611734565b600460009054906101000a900473ffffffffffffffffffffffffffffffffffffffff1673ffffffffffffffffffffffffffffffffffffffff163373ffffffffffffffffffffffffffffffffffffffff161480156116c257506002546116c0611474565b105b15611733576a3ca7626ccbb9bc68c0000061172583600760003373ffffffffffffffffffffffffffffffffffffffff1673ffffffffffffffffffffffffffffffffffffffff1681526020019081526020016000205461196390919063ffffffff16565b1015151561173257600080fd5b5b5b61178682600760003373ffffffffffffffffffffffffffffffffffffffff1673ffffffffffffffffffffffffffffffffffffffff1681526020019081526020016000205461196390919063ffffffff16565b600760003373ffffffffffffffffffffffffffffffffffffffff1673ffffffffffffffffffffffffffffffffffffffff1681526020019081526020016000208190555061181b82600760008673ffffffffffffffffffffffffffffffffffffffff1673ffffffffffffffffffffffffffffffffffffffff1681526020019081526020016000205461197c90919063ffffffff16565b600760008573ffffffffffffffffffffffffffffffffffffffff1673ffffffffffffffffffffffffffffffffffffffff168152602001908152602001600020819055508273ffffffffffffffffffffffffffffffffffffffff163373ffffffffffffffffffffffffffffffffffffffff167fddf252ad1be2c89b69c2b068fc378daa952ba7f163c4a11628f55a4df523b3ef846040518082815260200191505060405180910390a36001905092915050565b6a3ca7626ccbb9bc68c0000081565b6000600860008473ffffffffffffffffffffffffffffffffffffffff1673ffffffffffffffffffffffffffffffffffffffff16815260200190815260200160002060008373ffffffffffffffffffffffffffffffffffffffff1673ffffffffffffffffffffffffffffffffffffffff16815260200190815260200160002054905092915050565b600082821115151561197157fe5b818303905092915050565b60008082840190508381101580156119945750828110155b151561199c57fe5b80915050929150505600a165627a7a723058205fa14fa5f8e176be6d518ccf2b86835823dfc5feea16d9224f5eae4e99f940d10029",
  "source": "/*\n *  The Lympo Token contract complies with the ERC20 standard (see https://github.com/ethereum/EIPs/issues/20).\n *  All tokens not being sold during the crowdsale but the reserved token\n *  for tournaments future financing are burned.\n *  Author: Justas Kregzde\n */\n \npragma solidity ^0.4.15;\n\nlibrary SafeMath {\n    function mul(uint a, uint b) internal returns (uint) {\n        uint c = a * b;\n        assert(a == 0 || c / a == b);\n        return c;\n    }\n\n    function sub(uint a, uint b) internal returns (uint) {\n        assert(b <= a);\n        return a - b;\n    }\n\n    function add(uint a, uint b) internal returns (uint) {\n        uint c = a + b;\n        assert(c>=a && c>=b);\n        return c;\n    }\n}\n\ncontract LympoToken {\n    using SafeMath for uint;\n    // Public variables of the token\n    string constant public standard = \"ERC20\";\n    string constant public name = \"Lympo tokens\";\n    string constant public symbol = \"LYM\";\n    uint8 constant public decimals = 18;\n    uint _totalSupply = 1000000000e18; // Total supply of 1 billion Lympo Tokens\n    uint constant public tokensPreICO = 265000000e18; // 26.5%\n    uint constant public tokensICO = 385000000e18; // 38.5%\n    uint constant public teamReserve = 100000000e18; // 10%\n    uint constant public advisersReserve = 30000000e18; // 3%\n    uint constant public ecosystemReserve = 220000000e18; // 22%\n    uint constant public ecoLock23 = 146652000e18; // 2/3 of ecosystem reserve\n    uint constant public ecoLock13 = 73326000e18; // 1/3 of ecosystem reserve\n    uint constant public startTime = 1519815600; // Time after ICO, when tokens became transferable. Wednesday, 28 February 2018 11:00:00 GMT\n    uint public lockReleaseDate1year;\n    uint public lockReleaseDate2year;\n    address public ownerAddr;\n    address public ecosystemAddr;\n    address public advisersAddr;\n    bool burned;\n\n    // ---- FOR TEST ONLY ----\n    uint _current = 0;\n    function current() public returns (uint) {\n        // Override not in use\n        if(_current == 0) {\n            return now;\n        }\n        return _current;\n    }\n    function setCurrent(uint __current) {\n        _current = __current;\n    }\n    //------------------------\n\t\n    // Array with all balances\n    mapping (address => uint) balances;\n    mapping (address => mapping (address => uint)) allowed;\n\n    // Public event on the blockchain that will notify clients\n    event Transfer(address indexed from, address indexed to, uint value);\n    event Approval(address indexed _owner, address indexed spender, uint value);\n    event Burned(uint amount);\n\n    // What is the balance of a particular account?\n    function balanceOf(address _owner) constant returns (uint balance) {\n        return balances[_owner];\n    }\n\n    // Returns the amount which _spender is still allowed to withdraw from _owner\n    function allowance(address _owner, address _spender) constant returns (uint remaining) {\n        return allowed[_owner][_spender];\n    }\n\n    // Get the total token supply\n    function totalSupply() constant returns (uint totalSupply) {\n        totalSupply = _totalSupply;\n    }\n\n    // Initializes contract with initial supply tokens to the creator of the contract\n    function LympoToken(address _ownerAddr, address _advisersAddr, address _ecosystemAddr) {\n        ownerAddr = _ownerAddr;\n        advisersAddr = _advisersAddr;\n        ecosystemAddr = _ecosystemAddr;\n        lockReleaseDate1year = startTime + 1 years; // 2019\n        lockReleaseDate2year = startTime + 2 years; // 2020\n        balances[ownerAddr] = _totalSupply; // Give the owner all initial tokens\n    }\n\t\n    // Send some of your tokens to a given address\n    function transfer(address _to, uint _value) returns(bool) {\n        require(current() >= startTime); // Check if the crowdsale is already over\n\n        // prevent the owner of spending his share of tokens for team within first the two year\n        if (msg.sender == ownerAddr && current() < lockReleaseDate2year)\n            require(balances[msg.sender].sub(_value) >= teamReserve);\n\n        // prevent the ecosystem owner of spending 2/3 share of tokens for the first year, 1/3 for the next year\n        if (msg.sender == ecosystemAddr && current() < lockReleaseDate1year)\n            require(balances[msg.sender].sub(_value) >= ecoLock23);\n        else if (msg.sender == ecosystemAddr && current() < lockReleaseDate2year)\n            require(balances[msg.sender].sub(_value) >= ecoLock13);\n\n        balances[msg.sender] = balances[msg.sender].sub(_value); // Subtract from the sender\n        balances[_to] = balances[_to].add(_value); // Add the same to the recipient\n        Transfer(msg.sender, _to, _value); // Notify anyone listening that this transfer took place\n        return true;\n    }\n\t\n    // A contract or person attempts to get the tokens of somebody else.\n    // This is only allowed if the token holder approved.\n    function transferFrom(address _from, address _to, uint _value) returns(bool) {\n        if (current() < startTime)  // Check if the crowdsale is already over\n            require(_from == ownerAddr);\n\n        // prevent the owner of spending his share of tokens for team within the first two year\n        if (_from == ownerAddr && current() < lockReleaseDate2year)\n            require(balances[_from].sub(_value) >= teamReserve);\n\n        // prevent the ecosystem owner of spending 2/3 share of tokens for the first year, 1/3 for the next year\n        if (_from == ecosystemAddr && current() < lockReleaseDate1year)\n            require(balances[_from].sub(_value) >= ecoLock23);\n        else if (_from == ecosystemAddr && current() < lockReleaseDate2year)\n            require(balances[_from].sub(_value) >= ecoLock13);\n\n        var _allowed = allowed[_from][msg.sender];\n        balances[_from] = balances[_from].sub(_value); // Subtract from the sender\n        balances[_to] = balances[_to].add(_value); // Add the same to the recipient\n        allowed[_from][msg.sender] = _allowed.sub(_value);\n        Transfer(_from, _to, _value);\n        return true;\n    }\n\t\n    // Approve the passed address to spend the specified amount of tokens\n    // on behalf of msg.sender.\n    function approve(address _spender, uint _value) returns (bool) {\n        //https://github.com/ethereum/EIPs/issues/20#issuecomment-263524729\n        require((_value == 0) || (allowed[msg.sender][_spender] == 0));\n        allowed[msg.sender][_spender] = _value;\n        Approval(msg.sender, _spender, _value);\n        return true;\n    }\n\n    // Called when ICO is closed. Burns the remaining tokens except the tokens reserved:\n    // Anybody may burn the tokens after ICO ended, but only once (in case the owner holds more tokens in the future).\n    // this ensures that the owner will not posses a majority of the tokens.\n    function burn() {\n        // If tokens have not been burned already and the crowdsale ended\n        if (!burned && current() > startTime) {\n            uint totalReserve = ecosystemReserve.add(teamReserve);\n            totalReserve = totalReserve.add(advisersReserve);\n            uint difference = balances[ownerAddr].sub(totalReserve);\n            balances[ownerAddr] = teamReserve;\n            balances[advisersAddr] = advisersReserve;\n            balances[ecosystemAddr] = ecosystemReserve;\n            _totalSupply = _totalSupply.sub(difference);\n            burned = true;\n            Burned(difference);\n        }\n    }\n}\n",
  "sourcePath": "/Users/ltodd/Documents/ico-smartcontracts/contracts/LympoToken.sol",
  "compiler": {
    "name": "solc",
    "version": "0.4.24+commit.e67f0147.Emscripten.clang"
  },
  "schemaVersion": "2.0.1",
  "updatedAt": "2018-08-01T06:21:04.224Z"
}