{
  "contractName": "token",
  "abi": [
    {
      "constant": false,
      "inputs": [
        {
          "name": "sender",
          "type": "address"
        },
        {
          "name": "receiver",
          "type": "address"
        },
        {
          "name": "amount",
          "type": "uint256"
        }
      ],
      "name": "transferFrom",
      "outputs": [
        {
          "name": "success",
          "type": "bool"
        }
      ],
      "payable": false,
      "stateMutability": "nonpayable",
      "type": "function"
    },
    {
      "constant": false,
      "inputs": [],
      "name": "burn",
      "outputs": [],
      "payable": false,
      "stateMutability": "nonpayable",
      "type": "function"
    }
  ],
  "bytecode": "0x608060405234801561001057600080fd5b5061011b806100206000396000f3006080604052600436106049576000357c0100000000000000000000000000000000000000000000000000000000900463ffffffff16806323b872dd14604e57806344df8e701460d0575b600080fd5b348015605957600080fd5b5060b6600480360381019080803573ffffffffffffffffffffffffffffffffffffffff169060200190929190803573ffffffffffffffffffffffffffffffffffffffff1690602001909291908035906020019092919050505060e4565b604051808215151515815260200191505060405180910390f35b34801560db57600080fd5b5060e260ed565b005b60009392505050565b5600a165627a7a72305820c3b97763ad458f325e5d8f4af90bc0ce8c29f7b6d03d112ae68f03db2c9329b00029",
  "source": "/*\n *  Crowdsale for Lympo Tokens.\n *  Raised Ether will be stored safely at the wallet and returned to the ICO in case the funding\n *  goal is not reached, allowing the token holders to withdraw their funds.\n *  Author: Justas Kregždė\n */\n \npragma solidity ^0.4.15;\n\ncontract token {\n    function transferFrom(address sender, address receiver, uint amount) returns(bool success) {}\n    function burn() {}\n}\n\nlibrary SafeMath {\n    function mul(uint a, uint b) internal returns (uint) {\n        uint c = a * b;\n        assert(a == 0 || c / a == b);\n        return c;\n    }\n\n    function sub(uint a, uint b) internal returns (uint) {\n        assert(b <= a);\n        return a - b;\n    }\n\n    function add(uint a, uint b) internal returns (uint) {\n        uint c = a + b;\n        assert(c >= a && c >= b);\n        return c;\n    }\n}\n\ncontract LympoICO {\n    using SafeMath for uint;\n\n    // pre-ICO\n    // The maximum amount of tokens to be sold during pre-ICO\n    uint constant public pre_maxGoal = 265000000e18; // 265 Million LYM Tokens\n    // There are different prices and amount available in each period\n    uint[2] public pre_prices = [60000, 50000];\n    uint[1] public pre_amount_stages = [90000000e18]; // the amount available in each stage\n    // The start date of the pre-ICO crowdsale\n    uint constant public pre_start = 1516618800; // Monday, 22 January 2018 11:00:00 GMT\n    // The end date of the pre-ICO crowdsale\n    uint constant public pre_end = 1517655600; // Saturday, 3 February 2018 11:00:00 GMT\n    // The number of tokens already sold during pre-ICO\n    uint public pre_tokensSold = 0;\n\n    // ICO\n    // The maximum amount of tokens to be sold\n    uint constant public maxGoal = 385000000e18; // 385 Million LYM Tokens\n    // There are different prices and amount available in each period\n    uint[1] public prices = [40000];\n    // The start date of the crowdsale\n    uint constant public start = 1518865200; // Saturday, 17 February 2018 11:00:00 GMT\n    // The end date of the crowdsale\n    uint constant public end = 1519815600; // Wednesday, 28 February 2018 11:00:00 GMT\n    // The number of tokens already sold during ICO\n    uint public tokensSold = 0;\n\n    // If the funding goal is not reached, token holders may withdraw their funds\n    uint constant public fundingGoal = 150000000e18; // 15%\n    // How much has been raised by crowdale (in ETH)\n    uint public amountRaised;\n    // The balances (in ETH) of all token holders\n    mapping(address => uint) public balances;\n    // Indicates if the crowdsale has been ended already\n    bool public crowdsaleEnded = false;\n    // Tokens will be transfered from this address\n    address public tokenOwner;\n    // The address of the token contract\n    token public tokenReward;\n    // The wallet on which the funds will be stored\n    address wallet;\n    // Notifying transfers and the success of the crowdsale\n    event GoalReached(address _tokenOwner, uint _amountRaised);\n    event FundTransfer(address backer, uint amount, bool isContribution, uint _amountRaised);\n\n    // ---- FOR TEST ONLY ----\n    uint _current = 0;\n    function current() public returns (uint) {\n        // Override not in use\n        if(_current == 0) {\n            return now;\n        }\n        return _current;\n    }\n    function setCurrent(uint __current) {\n        _current = __current;\n    }\n    //------------------------\n\n\n    // Constructor/initialization\n    function LympoICO(address tokenAddr, address walletAddr, address tokenOwnerAddr) {\n        tokenReward = token(tokenAddr);\n        wallet = walletAddr;\n        tokenOwner = tokenOwnerAddr;\n    }\n    \n    // Exchange by sending ether to the contract.\n    function() payable {\n        if (msg.sender != wallet) // Do not trigger exchange if the wallet is returning the funds\n            exchange(msg.sender);\n    }\n    \n    // Make an exchanegment. Only callable if the crowdsale started and hasn't been ended, also the maxGoal wasn't reached yet.\n    // The current token price is looked up by available amount. Bought tokens is transfered to the receiver.\n    // The sent value is directly forwarded to a safe wallet.\n    function exchange(address receiver) payable {\n        uint amount = msg.value;\n        uint price = getPrice();\n        uint numTokens = amount.mul(price);\n\n        bool isPreICO = (current() >= pre_start && current() <= pre_end);\n        bool isICO = (current() >= start && current() <= end);\n\n        require(isPreICO || isICO);\n        require(numTokens > 0);\n        if (isPreICO)\n        {\n            require(!crowdsaleEnded && pre_tokensSold.add(numTokens) <= pre_maxGoal);\n            if (pre_tokensSold < pre_amount_stages[0])\n                require(numTokens <= 6000000e18); // max threshold for pre-ICO: 6mil LYM tokens for stage-I\n            else\n                require(numTokens <= 12500000e18); // max threshold for pre-ICO: 12.5mil LYM tokens for stage-II\n        }\n        if (isICO)\n        {\n            require(!crowdsaleEnded && tokensSold.add(numTokens) <= maxGoal);\n        }\n\n        wallet.transfer(amount);\n        balances[receiver] = balances[receiver].add(amount);\n        \n        // Calculate how much raised and tokens sold\n        amountRaised = amountRaised.add(amount);\n\n        if (isPreICO)\n            pre_tokensSold = pre_tokensSold.add(numTokens);\n        if (isICO)\n            tokensSold = tokensSold.add(numTokens);\n\n        assert(tokenReward.transferFrom(tokenOwner, receiver, numTokens));\n        FundTransfer(receiver, amount, true, amountRaised);\n    }\n\n    // Looks up the current token price\n    function getPrice() constant returns (uint price) {\n        // pre-ICO prices\n        if (current() >= pre_start && current() <= pre_end)\n        {\n            for(uint i = 0; i < pre_amount_stages.length; i++) {\n                if(pre_tokensSold < pre_amount_stages[i])\n                    return pre_prices[i];\n            }\n            return pre_prices[pre_prices.length-1];\n        }\n        // ICO prices\n        if (current() >= start && current() <= end)\n        {\n            return prices[prices.length-1];\n        }\n        return prices[prices.length-1];\n    }\n\n    modifier afterDeadline() { if (current() >= end) _; }\n\n    // Checks if the goal or time limit has been reached and ends the campaign\n    function checkGoalReached() afterDeadline {\n        if (pre_tokensSold.add(tokensSold) >= fundingGoal){\n            tokenReward.burn(); // Burn remaining tokens but the reserved ones\n            GoalReached(tokenOwner, amountRaised);\n        }\n        crowdsaleEnded = true;\n    }\n\n    // Allows the funders to withdraw their funds if the goal has not been reached.\n    // Only works after funds have been returned from the wallet.\n    function safeWithdrawal() afterDeadline {\n        uint amount = balances[msg.sender];\n        if (address(this).balance >= amount) {\n            balances[msg.sender] = 0;\n            if (amount > 0) {\n                msg.sender.transfer(amount);\n                FundTransfer(msg.sender, amount, false, amountRaised);\n            }\n        }\n    }\n}\n",
  "sourcePath": "/Users/ltodd/Documents/ico-smartcontracts/contracts/LympoICO.sol",
  "compiler": {
    "name": "solc",
    "version": "0.4.24+commit.e67f0147.Emscripten.clang"
  },
  "schemaVersion": "2.0.1",
  "updatedAt": "2018-08-01T06:21:04.166Z"
}